:100000000C943E000C945B000C945B000C945B0021
:100010000C945B000C9414020C945B000C945B0039
:100020000C945B000C945B000C945B000C945B00E4
:100030000C945B000C945B000C945B000C945B00D4
:100040000C945B000C945B000C945B000C945B00C4
:100050000C945B000C945B000C945B000C945B00B4
:100060000C945B000C945B004C0350035403580346
:100070005C036003640368036C03700311241FBEF8
:10008000CFEFD4E0DEBFCDBF12E0A0E0B1E0E6E20A
:10009000F7E002C005900D92AA31B107D9F722E02E
:1000A000AAE1B2E001C01D92AF31B207E1F70E94B0
:1000B0005D000C9491030C940000CF93DF93CDB7B7
:1000C000DEB76A970FB6F894DEBF0FBECDBF0E94B1
:1000D000AC020E94AB010E94E7020E94E1012FEFF7
:1000E00080E792E0215080409040E1F700C000009E
:1000F00078940E94040280E091E00E94000341E0B5
:10010000BE016A5F7F4F80E00E9475028E818B3452
:1001100029F481E191E00E94000304C08FE291E0A4
:100120000E94000381E591E00E94000388E691E0CF
:100130000E9400035E01E7E0AE0EB11C45E0B50190
:1001400080E10E947502CA2CDB2C75018E01045FD0
:100150001F4FF50181915F010E940F0380E20E9411
:10016000F802A016B106A9F783ED91E00E94000302
:1001700084E791E00E94000345E0BE01695F7F4F84
:100180008AE00E947502AC2CBD2CF50181915F01C3
:100190000E940F0380E20E94F8020A151B05A9F7CE
:1001A00083ED91E00E94000389E891E00E94000342
:1001B00045E0BE01695F7F4F8BE00E947502AC2C69
:1001C000BD2CF50181915F010E940F0380E20E9426
:1001D000F8020A151B05A9F783ED91E00E940003C0
:1001E0008AE08D8387010C5E1F4FEC2CFD2CDD24F3
:1001F000D3946894CC24C4F80E94BE018D818A30C7
:1002000009F0A5C01D82EE2DFF2D1192E017F10718
:10021000E1F70E94EA01882309F473C0CE01079632
:100220000E9461028EE991E00E9400038FEA91E052
:100230000E940003AE2CBF2CF50181915F010E944A
:100240000F0380E20E94F8020A151B05A9F783ED4F
:1002500091E00E94000385EB91E00E940003AE2C28
:10026000BF2CF50181915F010E94F80280E20E949B
:10027000F8020A151B05A9F783ED91E00E9400031F
:100280008F818130F1F58DEB91E00E940003CF82E8
:100290000E94D80169837A838B839C8389818C87B0
:1002A0008A818D878B818E878C818F87FFEF20E7F6
:1002B00082E0F15020408040E1F700C0000064E19E
:1002C000CE0107960E9488024A99FECF0E944B02F7
:1002D00086ED91E00E940003AE2CBF2CF5018191C8
:1002E0005F010E940F0380E20E94F8020A151B05BD
:1002F000A9F783ED91E00E94000383ED91E00E9455
:1003000000030E9480038A9711F582E092E00E9428
:1003100000030E94D80169837A838B839C83DF82E8
:10032000898188878A8189878B818A878C818B875D
:10033000FE013C9611920E171F07E1F764E1CE0112
:1003400007960E9488024A99FECF0E944B028D8137
:100350008F5F8D8351CF10926E0015BA82E084BDFD
:1003600083E085BD8AEF87BD16BC10921A021092F9
:100370001B0210921C0210921D0208958AE0A99A95
:10038000A99BFECF8150D9F780911A0290911B0250
:10039000A0911C02B0911D020A96A11DB11D80936F
:1003A0001A0290931B02A0931C02B0931D020895A1
:1003B00060911A0270911B0280911C0290911D02A3
:1003C000089584B1836084B92898299A52980E942C
:1003D000B402089580911E02811107C029988FEF01
:1003E0000E94E102299A8074089580E00895CF93D5
:1003F000C62F29988F7180620E94E1028C2F0E9483
:10040000E102299ACF91089562E085E00E94F70108
:1004100064E181E10E94F70110921E026BE480E02A
:100420000E94F701289A08951F920F920FB60F921B
:1004300011242F933F934F935F936F937F938F93E9
:100440009F93AF93BF93EF93FF9380911E028823F6
:1004500089F029988FEF0E94E102299A28986BE48D
:1004600080E00E94F701289A10921E0260E387E064
:100470000E94F701FF91EF91BF91AF919F918F91F2
:100480007F916F915F914F913F912F910F900FBE90
:100490000F901F90189580911E02882389F029984B
:1004A0008FEF0E94E102299A28986BE480E00E9475
:1004B000F701289A10921E0260E387E00E94F7017C
:1004C0000895CF93DF93EC01299881E60E94E10221
:1004D00044E1BE01CE010E94BF02299A60E487E098
:1004E0000E94F701DF91CF9108951F93CF93DF937F
:1004F000EB01142F29988F710E94E102412FBE0158
:10050000CE010E94BF02299ADF91CF911F910895D9
:100510001F93CF93DF93EC01162F80911E02811160
:10052000FCCF289881E080931E026AE480E00E945C
:10053000F701299881EE0E94E102299A299880EA20
:100540000E94E102612FCE010E94D202299A289ACC
:10055000DF91CF911F91089515B814B818B817B846
:100560001BB882EE8AB9089584B1837C84B984B1C2
:100570008C6284B981E58CBD81E08DBD08954423F2
:1005800081F0282FA62FB72FE82FF92F81918EBD4C
:100590000DB407FEFDCF8EB58D938E2F821B841771
:1005A000A8F30895662361F0282FE82FF92F819191
:1005B0008EBD0DB407FEFDCF8E2F821B8617B8F3BC
:1005C00008958EBD0DB407FEFDCF8EB5089588E168
:1005D0008093C10086E08093C2001092C50082E241
:1005E0008093C400E0ECF0E0808182608083089515
:1005F000E0ECF0E0908195FFFDCF8093C600089578
:10060000CF93DF93EC018881882331F021960E94FB
:10061000F80289918111FBCFDF91CF9108951F934B
:10062000CF93DF93CDB7DEB72A970FB6F894DEBF2E
:100630000FBECDBF811104C080E30E94F80256C0F6
:100640001AE04DEC1150E1E0F0E0EC0FFD1FE10F7E
:10065000F11D849F912D1124969596959695292F9D
:10066000220F322F330F330F230F821B8083892FEA
:100670009111E8CF1A30D0F5E1E0F0E0EC0FFD1F6A
:10068000E10FF11D808190E08A30910560F5FC0159
:10069000EC5CFF4F0C948B0380E30E94F80223C0B4
:1006A00081E30E94F8021FC082E30E94F8021BC08F
:1006B00083E30E94F80217C084E30E94F80213C08B
:1006C00085E30E94F8020FC086E30E94F8020BC087
:1006D00087E30E94F80207C088E30E94F80203C083
:1006E00089E30E94F8021F5F1A3031F62A960FB68E
:1006F000F894DEBF0FBECDBFDF91CF911F9108955B
:100700008091C000882324F48091C60090E0089571
:100710008FEF9FEF0895EE0FFF1F0590F491E02DEE
:060720000994F894FFCFDC
:100726006E726632346C3031705F546573740D0AC4
:10073600004D6F64756C6520636F72726563746CCF
:100746007920636F6E666967757265640D0A004D80
:100756006F64756C65206E6F7420636F727265636B
:10076600746C7920636F6E666967757265640D0ACD
:10077600004D6F64756C6520436F6E6669677572B0
:100786006174696F6E0D0A00545820416472657376
:10079600733A2000525820416472657373202850C2
:1007A6006970652030293A200052582041647265EC
:1007B60073732028506970652031293A20004461FE
:1007C60074612072656365697665643A0D0A005244
:1007D60061773A200041534349493A200052656304
:1007E60065697665642050696E6720726571756506
:1007F60073742E0D0A0050696E6720726573706FF0
:100806006E73652073656E74207769746820666FF1
:100816006C6C6F77696E67206D6573736167650DC4
:100826000A0053656E64696E672050696E672052D0
:0A0836006571756573740D0A00000A
:00000001FF
